{
  "address": "0x80dC928abE680827bcAe8D5124D2f073fcc08954",
  "abi": [
    {
      "anonymous": false,
      "inputs": [
        {
          "indexed": false,
          "internalType": "address",
          "name": "oldAdmin",
          "type": "address"
        },
        {
          "indexed": false,
          "internalType": "address",
          "name": "newAdmin",
          "type": "address"
        }
      ],
      "name": "NewAdmin",
      "type": "event"
    },
    {
      "anonymous": false,
      "inputs": [
        {
          "indexed": false,
          "internalType": "address",
          "name": "oldImplementation",
          "type": "address"
        },
        {
          "indexed": false,
          "internalType": "address",
          "name": "newImplementation",
          "type": "address"
        }
      ],
      "name": "NewImplementation",
      "type": "event"
    },
    {
      "anonymous": false,
      "inputs": [
        {
          "indexed": false,
          "internalType": "address",
          "name": "oldPendingAdmin",
          "type": "address"
        },
        {
          "indexed": false,
          "internalType": "address",
          "name": "newPendingAdmin",
          "type": "address"
        }
      ],
      "name": "NewPendingAdmin",
      "type": "event"
    },
    {
      "anonymous": false,
      "inputs": [
        {
          "indexed": false,
          "internalType": "uint256",
          "name": "id",
          "type": "uint256"
        }
      ],
      "name": "ProposalCanceled",
      "type": "event"
    },
    {
      "anonymous": false,
      "inputs": [
        {
          "indexed": false,
          "internalType": "uint256",
          "name": "id",
          "type": "uint256"
        },
        {
          "indexed": false,
          "internalType": "address",
          "name": "proposer",
          "type": "address"
        },
        {
          "indexed": false,
          "internalType": "address[]",
          "name": "targets",
          "type": "address[]"
        },
        {
          "indexed": false,
          "internalType": "uint256[]",
          "name": "values",
          "type": "uint256[]"
        },
        {
          "indexed": false,
          "internalType": "string[]",
          "name": "signatures",
          "type": "string[]"
        },
        {
          "indexed": false,
          "internalType": "bytes[]",
          "name": "calldatas",
          "type": "bytes[]"
        },
        {
          "indexed": false,
          "internalType": "uint256",
          "name": "startBlock",
          "type": "uint256"
        },
        {
          "indexed": false,
          "internalType": "uint256",
          "name": "endBlock",
          "type": "uint256"
        },
        {
          "indexed": false,
          "internalType": "string",
          "name": "description",
          "type": "string"
        }
      ],
      "name": "ProposalCreated",
      "type": "event"
    },
    {
      "anonymous": false,
      "inputs": [
        {
          "indexed": false,
          "internalType": "uint256",
          "name": "id",
          "type": "uint256"
        }
      ],
      "name": "ProposalExecuted",
      "type": "event"
    },
    {
      "anonymous": false,
      "inputs": [
        {
          "indexed": false,
          "internalType": "uint256",
          "name": "id",
          "type": "uint256"
        },
        {
          "indexed": false,
          "internalType": "uint256",
          "name": "eta",
          "type": "uint256"
        }
      ],
      "name": "ProposalQueued",
      "type": "event"
    },
    {
      "anonymous": false,
      "inputs": [
        {
          "indexed": false,
          "internalType": "uint256",
          "name": "oldProposalThreshold",
          "type": "uint256"
        },
        {
          "indexed": false,
          "internalType": "uint256",
          "name": "newProposalThreshold",
          "type": "uint256"
        }
      ],
      "name": "ProposalThresholdSet",
      "type": "event"
    },
    {
      "anonymous": false,
      "inputs": [
        {
          "indexed": true,
          "internalType": "address",
          "name": "voter",
          "type": "address"
        },
        {
          "indexed": false,
          "internalType": "uint256",
          "name": "proposalId",
          "type": "uint256"
        },
        {
          "indexed": false,
          "internalType": "uint8",
          "name": "support",
          "type": "uint8"
        },
        {
          "indexed": false,
          "internalType": "uint256",
          "name": "votes",
          "type": "uint256"
        },
        {
          "indexed": false,
          "internalType": "string",
          "name": "reason",
          "type": "string"
        }
      ],
      "name": "VoteCast",
      "type": "event"
    },
    {
      "anonymous": false,
      "inputs": [
        {
          "indexed": false,
          "internalType": "uint256",
          "name": "oldVotingDelay",
          "type": "uint256"
        },
        {
          "indexed": false,
          "internalType": "uint256",
          "name": "newVotingDelay",
          "type": "uint256"
        }
      ],
      "name": "VotingDelaySet",
      "type": "event"
    },
    {
      "anonymous": false,
      "inputs": [
        {
          "indexed": false,
          "internalType": "uint256",
          "name": "oldVotingPeriod",
          "type": "uint256"
        },
        {
          "indexed": false,
          "internalType": "uint256",
          "name": "newVotingPeriod",
          "type": "uint256"
        }
      ],
      "name": "VotingPeriodSet",
      "type": "event"
    },
    {
      "anonymous": false,
      "inputs": [
        {
          "indexed": false,
          "internalType": "address",
          "name": "account",
          "type": "address"
        },
        {
          "indexed": false,
          "internalType": "uint256",
          "name": "expiration",
          "type": "uint256"
        }
      ],
      "name": "WhitelistAccountExpirationSet",
      "type": "event"
    },
    {
      "anonymous": false,
      "inputs": [
        {
          "indexed": false,
          "internalType": "address",
          "name": "oldGuardian",
          "type": "address"
        },
        {
          "indexed": false,
          "internalType": "address",
          "name": "newGuardian",
          "type": "address"
        }
      ],
      "name": "WhitelistGuardianSet",
      "type": "event"
    },
    {
      "constant": true,
      "inputs": [],
      "name": "BALLOT_TYPEHASH",
      "outputs": [
        {
          "internalType": "bytes32",
          "name": "",
          "type": "bytes32"
        }
      ],
      "payable": false,
      "stateMutability": "view",
      "type": "function"
    },
    {
      "constant": true,
      "inputs": [],
      "name": "DOMAIN_TYPEHASH",
      "outputs": [
        {
          "internalType": "bytes32",
          "name": "",
          "type": "bytes32"
        }
      ],
      "payable": false,
      "stateMutability": "view",
      "type": "function"
    },
    {
      "constant": true,
      "inputs": [],
      "name": "MAX_PROPOSAL_THRESHOLD",
      "outputs": [
        {
          "internalType": "uint256",
          "name": "",
          "type": "uint256"
        }
      ],
      "payable": false,
      "stateMutability": "view",
      "type": "function"
    },
    {
      "constant": true,
      "inputs": [],
      "name": "MAX_VOTING_DELAY",
      "outputs": [
        {
          "internalType": "uint256",
          "name": "",
          "type": "uint256"
        }
      ],
      "payable": false,
      "stateMutability": "view",
      "type": "function"
    },
    {
      "constant": true,
      "inputs": [],
      "name": "MAX_VOTING_PERIOD",
      "outputs": [
        {
          "internalType": "uint256",
          "name": "",
          "type": "uint256"
        }
      ],
      "payable": false,
      "stateMutability": "view",
      "type": "function"
    },
    {
      "constant": true,
      "inputs": [],
      "name": "MIN_PROPOSAL_THRESHOLD",
      "outputs": [
        {
          "internalType": "uint256",
          "name": "",
          "type": "uint256"
        }
      ],
      "payable": false,
      "stateMutability": "view",
      "type": "function"
    },
    {
      "constant": true,
      "inputs": [],
      "name": "MIN_VOTING_DELAY",
      "outputs": [
        {
          "internalType": "uint256",
          "name": "",
          "type": "uint256"
        }
      ],
      "payable": false,
      "stateMutability": "view",
      "type": "function"
    },
    {
      "constant": true,
      "inputs": [],
      "name": "MIN_VOTING_PERIOD",
      "outputs": [
        {
          "internalType": "uint256",
          "name": "",
          "type": "uint256"
        }
      ],
      "payable": false,
      "stateMutability": "view",
      "type": "function"
    },
    {
      "constant": false,
      "inputs": [],
      "name": "_acceptAdmin",
      "outputs": [],
      "payable": false,
      "stateMutability": "nonpayable",
      "type": "function"
    },
    {
      "constant": false,
      "inputs": [
        {
          "internalType": "address",
          "name": "newPendingAdmin",
          "type": "address"
        }
      ],
      "name": "_setPendingAdmin",
      "outputs": [],
      "payable": false,
      "stateMutability": "nonpayable",
      "type": "function"
    },
    {
      "constant": false,
      "inputs": [
        {
          "internalType": "uint256",
          "name": "newProposalThreshold",
          "type": "uint256"
        }
      ],
      "name": "_setProposalThreshold",
      "outputs": [],
      "payable": false,
      "stateMutability": "nonpayable",
      "type": "function"
    },
    {
      "constant": false,
      "inputs": [
        {
          "internalType": "uint256",
          "name": "newVotingDelay",
          "type": "uint256"
        }
      ],
      "name": "_setVotingDelay",
      "outputs": [],
      "payable": false,
      "stateMutability": "nonpayable",
      "type": "function"
    },
    {
      "constant": false,
      "inputs": [
        {
          "internalType": "uint256",
          "name": "newVotingPeriod",
          "type": "uint256"
        }
      ],
      "name": "_setVotingPeriod",
      "outputs": [],
      "payable": false,
      "stateMutability": "nonpayable",
      "type": "function"
    },
    {
      "constant": true,
      "inputs": [],
      "name": "admin",
      "outputs": [
        {
          "internalType": "address",
          "name": "",
          "type": "address"
        }
      ],
      "payable": false,
      "stateMutability": "view",
      "type": "function"
    },
    {
      "constant": false,
      "inputs": [
        {
          "internalType": "uint256",
          "name": "proposalId",
          "type": "uint256"
        }
      ],
      "name": "cancel",
      "outputs": [],
      "payable": false,
      "stateMutability": "nonpayable",
      "type": "function"
    },
    {
      "constant": false,
      "inputs": [
        {
          "internalType": "uint256",
          "name": "proposalId",
          "type": "uint256"
        },
        {
          "internalType": "uint8",
          "name": "support",
          "type": "uint8"
        }
      ],
      "name": "castVote",
      "outputs": [],
      "payable": false,
      "stateMutability": "nonpayable",
      "type": "function"
    },
    {
      "constant": false,
      "inputs": [
        {
          "internalType": "uint256",
          "name": "proposalId",
          "type": "uint256"
        },
        {
          "internalType": "uint8",
          "name": "support",
          "type": "uint8"
        },
        {
          "internalType": "string",
          "name": "reason",
          "type": "string"
        }
      ],
      "name": "castVoteWithReason",
      "outputs": [],
      "payable": false,
      "stateMutability": "nonpayable",
      "type": "function"
    },
    {
      "constant": false,
      "inputs": [
        {
          "internalType": "uint256",
          "name": "proposalId",
          "type": "uint256"
        }
      ],
      "name": "execute",
      "outputs": [],
      "payable": true,
      "stateMutability": "payable",
      "type": "function"
    },
    {
      "constant": true,
      "inputs": [
        {
          "internalType": "uint256",
          "name": "proposalId",
          "type": "uint256"
        }
      ],
      "name": "getActions",
      "outputs": [
        {
          "internalType": "address[]",
          "name": "targets",
          "type": "address[]"
        },
        {
          "internalType": "uint256[]",
          "name": "values",
          "type": "uint256[]"
        },
        {
          "internalType": "string[]",
          "name": "signatures",
          "type": "string[]"
        },
        {
          "internalType": "bytes[]",
          "name": "calldatas",
          "type": "bytes[]"
        }
      ],
      "payable": false,
      "stateMutability": "view",
      "type": "function"
    },
    {
      "constant": true,
      "inputs": [
        {
          "internalType": "uint256",
          "name": "proposalId",
          "type": "uint256"
        },
        {
          "internalType": "address",
          "name": "voter",
          "type": "address"
        }
      ],
      "name": "getReceipt",
      "outputs": [
        {
          "components": [
            {
              "internalType": "bool",
              "name": "hasVoted",
              "type": "bool"
            },
            {
              "internalType": "uint8",
              "name": "support",
              "type": "uint8"
            },
            {
              "internalType": "uint256",
              "name": "votes",
              "type": "uint256"
            }
          ],
          "internalType": "struct GovernorBravoDelegateStorageV1.Receipt",
          "name": "",
          "type": "tuple"
        }
      ],
      "payable": false,
      "stateMutability": "view",
      "type": "function"
    },
    {
      "constant": true,
      "inputs": [],
      "name": "implementation",
      "outputs": [
        {
          "internalType": "address",
          "name": "",
          "type": "address"
        }
      ],
      "payable": false,
      "stateMutability": "view",
      "type": "function"
    },
    {
      "constant": true,
      "inputs": [],
      "name": "initialProposalId",
      "outputs": [
        {
          "internalType": "uint256",
          "name": "",
          "type": "uint256"
        }
      ],
      "payable": false,
      "stateMutability": "view",
      "type": "function"
    },
    {
      "constant": false,
      "inputs": [
        {
          "internalType": "address",
          "name": "timelock_",
          "type": "address"
        },
        {
          "internalType": "address",
          "name": "vemobi_",
          "type": "address"
        },
        {
          "internalType": "uint256",
          "name": "votingPeriod_",
          "type": "uint256"
        },
        {
          "internalType": "uint256",
          "name": "votingDelay_",
          "type": "uint256"
        },
        {
          "internalType": "uint256",
          "name": "proposalThreshold_",
          "type": "uint256"
        }
      ],
      "name": "initialize",
      "outputs": [],
      "payable": false,
      "stateMutability": "nonpayable",
      "type": "function"
    },
    {
      "constant": true,
      "inputs": [
        {
          "internalType": "address",
          "name": "",
          "type": "address"
        }
      ],
      "name": "latestProposalIds",
      "outputs": [
        {
          "internalType": "uint256",
          "name": "",
          "type": "uint256"
        }
      ],
      "payable": false,
      "stateMutability": "view",
      "type": "function"
    },
    {
      "constant": true,
      "inputs": [],
      "name": "name",
      "outputs": [
        {
          "internalType": "string",
          "name": "",
          "type": "string"
        }
      ],
      "payable": false,
      "stateMutability": "view",
      "type": "function"
    },
    {
      "constant": true,
      "inputs": [],
      "name": "pendingAdmin",
      "outputs": [
        {
          "internalType": "address",
          "name": "",
          "type": "address"
        }
      ],
      "payable": false,
      "stateMutability": "view",
      "type": "function"
    },
    {
      "constant": true,
      "inputs": [],
      "name": "proposalCount",
      "outputs": [
        {
          "internalType": "uint256",
          "name": "",
          "type": "uint256"
        }
      ],
      "payable": false,
      "stateMutability": "view",
      "type": "function"
    },
    {
      "constant": true,
      "inputs": [],
      "name": "proposalMaxOperations",
      "outputs": [
        {
          "internalType": "uint256",
          "name": "",
          "type": "uint256"
        }
      ],
      "payable": false,
      "stateMutability": "view",
      "type": "function"
    },
    {
      "constant": true,
      "inputs": [],
      "name": "proposalThreshold",
      "outputs": [
        {
          "internalType": "uint256",
          "name": "",
          "type": "uint256"
        }
      ],
      "payable": false,
      "stateMutability": "view",
      "type": "function"
    },
    {
      "constant": true,
      "inputs": [
        {
          "internalType": "uint256",
          "name": "",
          "type": "uint256"
        }
      ],
      "name": "proposals",
      "outputs": [
        {
          "internalType": "uint256",
          "name": "id",
          "type": "uint256"
        },
        {
          "internalType": "address",
          "name": "proposer",
          "type": "address"
        },
        {
          "internalType": "uint256",
          "name": "eta",
          "type": "uint256"
        },
        {
          "internalType": "uint256",
          "name": "startBlock",
          "type": "uint256"
        },
        {
          "internalType": "uint256",
          "name": "endBlock",
          "type": "uint256"
        },
        {
          "internalType": "uint256",
          "name": "forVotes",
          "type": "uint256"
        },
        {
          "internalType": "uint256",
          "name": "againstVotes",
          "type": "uint256"
        },
        {
          "internalType": "uint256",
          "name": "abstainVotes",
          "type": "uint256"
        },
        {
          "internalType": "bool",
          "name": "canceled",
          "type": "bool"
        },
        {
          "internalType": "bool",
          "name": "executed",
          "type": "bool"
        }
      ],
      "payable": false,
      "stateMutability": "view",
      "type": "function"
    },
    {
      "constant": false,
      "inputs": [
        {
          "internalType": "address[]",
          "name": "targets",
          "type": "address[]"
        },
        {
          "internalType": "uint256[]",
          "name": "values",
          "type": "uint256[]"
        },
        {
          "internalType": "string[]",
          "name": "signatures",
          "type": "string[]"
        },
        {
          "internalType": "bytes[]",
          "name": "calldatas",
          "type": "bytes[]"
        },
        {
          "internalType": "string",
          "name": "description",
          "type": "string"
        }
      ],
      "name": "propose",
      "outputs": [
        {
          "internalType": "uint256",
          "name": "",
          "type": "uint256"
        }
      ],
      "payable": false,
      "stateMutability": "nonpayable",
      "type": "function"
    },
    {
      "constant": false,
      "inputs": [
        {
          "internalType": "uint256",
          "name": "proposalId",
          "type": "uint256"
        }
      ],
      "name": "queue",
      "outputs": [],
      "payable": false,
      "stateMutability": "nonpayable",
      "type": "function"
    },
    {
      "constant": true,
      "inputs": [],
      "name": "quorumVotes",
      "outputs": [
        {
          "internalType": "uint256",
          "name": "",
          "type": "uint256"
        }
      ],
      "payable": false,
      "stateMutability": "view",
      "type": "function"
    },
    {
      "constant": true,
      "inputs": [
        {
          "internalType": "uint256",
          "name": "proposalId",
          "type": "uint256"
        }
      ],
      "name": "state",
      "outputs": [
        {
          "internalType": "enum GovernorBravoDelegateStorageV1.ProposalState",
          "name": "",
          "type": "uint8"
        }
      ],
      "payable": false,
      "stateMutability": "view",
      "type": "function"
    },
    {
      "constant": true,
      "inputs": [],
      "name": "timelock",
      "outputs": [
        {
          "internalType": "contract TimelockInterface",
          "name": "",
          "type": "address"
        }
      ],
      "payable": false,
      "stateMutability": "view",
      "type": "function"
    },
    {
      "constant": true,
      "inputs": [],
      "name": "vemobi",
      "outputs": [
        {
          "internalType": "contract veMOBIInterface",
          "name": "",
          "type": "address"
        }
      ],
      "payable": false,
      "stateMutability": "view",
      "type": "function"
    },
    {
      "constant": true,
      "inputs": [],
      "name": "votingDelay",
      "outputs": [
        {
          "internalType": "uint256",
          "name": "",
          "type": "uint256"
        }
      ],
      "payable": false,
      "stateMutability": "view",
      "type": "function"
    },
    {
      "constant": true,
      "inputs": [],
      "name": "votingPeriod",
      "outputs": [
        {
          "internalType": "uint256",
          "name": "",
          "type": "uint256"
        }
      ],
      "payable": false,
      "stateMutability": "view",
      "type": "function"
    }
  ],
  "transactionHash": "0x3fe35a727e985875c1e41492e47d7585979e6af33202e80b4a391098aef5b54b",
  "args": [],
  "solcInputHash": "6d977a4df38b997875f9fd44c6059a3b",
  "bytecode": "0x608060405234801561001057600080fd5b506147c6806100206000396000f3fe6080604052600436106102855760003560e01c80637b3c71d311610153578063da35c664116100cb578063e48083fe1161007f578063f851a44011610064578063f851a44014610663578063fc4eee4214610678578063fe0d94c11461068d57610285565b8063e48083fe14610639578063e9c714f21461064e57610285565b8063ddf0b009116100b0578063ddf0b009146105d7578063deaaa7cc146105f7578063e23a9a521461060c57610285565b8063da35c664146105a2578063da95691a146105b757610285565b8063b112626311610122578063b71d1a0c11610107578063b71d1a0c1461054d578063d13f90b41461056d578063d33219b41461058d57610285565b8063b112626314610501578063b58131b01461053857610285565b80637b3c71d3146104cc5780637bdbe4d0146104ec578063a64e024a14610501578063a6a0b3de1461051657610285565b806324bc1a64116102015780633e4f49e6116101b5578063567813881161019a57806356781388146104825780635c60da1b146104a2578063791f5d23146104b757610285565b80633e4f49e61461043557806340e58ee51461046257610285565b806326782247116101e657806326782247146103ce578063328dd982146103f05780633932abb11461042057610285565b806324bc1a64146103b957806325fd935a146103b957610285565b806317977c61116102585780631dfb1b5a1161023d5780631dfb1b5a1461036f57806320606b701461038f578063215809ca146103a457610285565b806317977c611461032f57806317ba1b8b1461034f57610285565b8063013cf08b1461028a57806302a251a3146102c957806306fdde03146102eb5780630ea2d98c1461030d575b600080fd5b34801561029657600080fd5b506102aa6102a5366004612f0b565b6106a0565b6040516102c09a999897969594939291906144cb565b60405180910390f35b3480156102d557600080fd5b506102de610710565b6040516102c091906141da565b3480156102f757600080fd5b50610300610716565b6040516102c09190614204565b34801561031957600080fd5b5061032d610328366004612f0b565b61074f565b005b34801561033b57600080fd5b506102de61034a366004612d20565b610839565b34801561035b57600080fd5b5061032d61036a366004612f0b565b61084b565b34801561037b57600080fd5b5061032d61038a366004612f0b565b610931565b34801561039b57600080fd5b506102de610a06565b3480156103b057600080fd5b506102de610a1d565b3480156103c557600080fd5b506102de610a22565b3480156103da57600080fd5b506103e3610a31565b6040516102c091906140a0565b3480156103fc57600080fd5b5061041061040b366004612f0b565b610a4d565b6040516102c0949392919061418d565b34801561042c57600080fd5b506102de610d25565b34801561044157600080fd5b50610455610450366004612f0b565b610d2b565b6040516102c091906141f6565b34801561046e57600080fd5b5061032d61047d366004612f0b565b610ef2565b34801561048e57600080fd5b5061032d61049d366004612f63565b6111c3565b3480156104ae57600080fd5b506103e361120d565b3480156104c357600080fd5b506102de611229565b3480156104d857600080fd5b5061032d6104e7366004612f93565b611237565b3480156104f857600080fd5b506102de611287565b34801561050d57600080fd5b506102de61128c565b34801561052257600080fd5b5061052b611293565b6040516102c091906141e8565b34801561054457600080fd5b506102de6112af565b34801561055957600080fd5b5061032d610568366004612d20565b6112b5565b34801561057957600080fd5b5061032d610588366004612d46565b61137e565b34801561059957600080fd5b5061052b61160b565b3480156105ae57600080fd5b506102de611627565b3480156105c357600080fd5b506102de6105d2366004612dbb565b61162d565b3480156105e357600080fd5b5061032d6105f2366004612f0b565b611b33565b34801561060357600080fd5b506102de611e38565b34801561061857600080fd5b5061062c610627366004612f29565b611e44565b6040516102c09190614415565b34801561064557600080fd5b506102de611eb3565b34801561065a57600080fd5b5061032d611eb8565b34801561066f57600080fd5b506103e3611fef565b34801561068457600080fd5b506102de61200b565b61032d61069b366004612f0b565b612011565b600a60208190526000918252604090912080546001820154600283015460078401546008850154600986015496860154600b870154600c90970154959773ffffffffffffffffffffffffffffffffffffffff90951696939592949193919290919060ff808216916101009004168a565b60045481565b6040518060400160405280601181526020017f4d6f6269757320476f7665726e616e636500000000000000000000000000000081525081565b60005473ffffffffffffffffffffffffffffffffffffffff1633146107a9576040517f08c379a00000000000000000000000000000000000000000000000000000000081526004016107a090614265565b60405180910390fd5b601481101580156107bd57506201d8808111155b6107f3576040517f08c379a00000000000000000000000000000000000000000000000000000000081526004016107a090614295565b60048054908290556040517f7e3f7f0708a84de9203036abaa450dccc85ad5ff52f78c170f3edb55cf5e88289061082d9083908590614551565b60405180910390a15050565b600b6020526000908152604090205481565b60005473ffffffffffffffffffffffffffffffffffffffff16331461089c576040517f08c379a00000000000000000000000000000000000000000000000000000000081526004016107a0906143d5565b69d3c21bcecceda100000081101580156108c157506a108b2a2c280290940000008111155b6108f7576040517f08c379a00000000000000000000000000000000000000000000000000000000081526004016107a090614325565b60058054908290556040517fccb45da8d5717e6c4544694297c4ba5cf151d455c9bb0ed4fc7a38411bc054619061082d9083908590614551565b60005473ffffffffffffffffffffffffffffffffffffffff163314610982576040517f08c379a00000000000000000000000000000000000000000000000000000000081526004016107a090614285565b6001811015801561099657506201d8808111155b6109cc576040517f08c379a00000000000000000000000000000000000000000000000000000000081526004016107a0906142c5565b60038054908290556040517fc565b045403dc03c2eea82b81a0465edad9e2e7fc4d97e11421c209da93d7a939061082d9083908590614551565b604051610a1290614095565b604051809103902081565b601481565b6a108b2a2c2802909400000081565b60015473ffffffffffffffffffffffffffffffffffffffff1681565b6060806060806000600a600087815260200190815260200160002090508060030181600401826005018360060183805480602002602001604051908101604052809291908181526020018280548015610adc57602002820191906000526020600020905b815473ffffffffffffffffffffffffffffffffffffffff168152600190910190602001808311610ab1575b5050505050935082805480602002602001604051908101604052809291908181526020018280548015610b2e57602002820191906000526020600020905b815481526020019060010190808311610b1a575b5050505050925081805480602002602001604051908101604052809291908181526020016000905b82821015610c1f5760008481526020908190208301805460408051601f60027fffffffffffffffffffffffffffffffffffffffffffffffffffffffffffffffff610100600187161502019094169390930492830185900485028101850190915281815292830182828015610c0b5780601f10610be057610100808354040283529160200191610c0b565b820191906000526020600020905b815481529060010190602001808311610bee57829003601f168201915b505050505081526020019060010190610b56565b50505050915080805480602002602001604051908101604052809291908181526020016000905b82821015610d0f5760008481526020908190208301805460408051601f60027fffffffffffffffffffffffffffffffffffffffffffffffffffffffffffffffff610100600187161502019094169390930492830185900485028101850190915281815292830182828015610cfb5780601f10610cd057610100808354040283529160200191610cfb565b820191906000526020600020905b815481529060010190602001808311610cde57829003601f168201915b505050505081526020019060010190610c46565b5050505090509450945094509450509193509193565b60035481565b60008160075410158015610d40575060065482115b610d76576040517f08c379a00000000000000000000000000000000000000000000000000000000081526004016107a0906143e5565b6000828152600a60205260409020600c81015460ff1615610d9b576002915050610eed565b80600701544311610db0576000915050610eed565b80600801544311610dc5576001915050610eed565b80600a01548160090154111580610dea57506a108b2a2c280290940000008160090154105b15610df9576003915050610eed565b6002810154610e0c576004915050610eed565b600c810154610100900460ff1615610e28576007915050610eed565b6002810154600854604080517fc1a287e20000000000000000000000000000000000000000000000000000000081529051610ed7939273ffffffffffffffffffffffffffffffffffffffff169163c1a287e2916004808301926020929190829003018186803b158015610e9a57600080fd5b505afa158015610eae573d6000803e3d6000fd5b505050506040513d601f19601f82011682018060405250610ed29190810190612eb8565b612239565b4210610ee7576006915050610eed565b60059150505b919050565b6007610efd82610d2b565b6007811115610f0857fe5b1415610f40576040517f08c379a00000000000000000000000000000000000000000000000000000000081526004016107a0906143c5565b6000818152600a60205260409020600181015473ffffffffffffffffffffffffffffffffffffffff16331480611019575060055460095460018381015473ffffffffffffffffffffffffffffffffffffffff92831692634ee2cd7e92911690610faa90439061227f565b6040518363ffffffff1660e01b8152600401610fc79291906140e4565b60206040518083038186803b158015610fdf57600080fd5b505afa158015610ff3573d6000803e3d6000fd5b505050506040513d601f19601f820116820180604052506110179190810190612eb8565b105b61104f576040517f08c379a00000000000000000000000000000000000000000000000000000000081526004016107a090614375565b600c810180547fffffffffffffffffffffffffffffffffffffffffffffffffffffffffffffff0016600117905560005b60038201548110156111935760085460038301805473ffffffffffffffffffffffffffffffffffffffff9092169163591fcdfe9190849081106110be57fe5b60009182526020909120015460048501805473ffffffffffffffffffffffffffffffffffffffff90921691859081106110f357fe5b906000526020600020015485600501858154811061110d57fe5b9060005260206000200186600601868154811061112657fe5b9060005260206000200187600201546040518663ffffffff1660e01b815260040161115595949392919061414c565b600060405180830381600087803b15801561116f57600080fd5b505af1158015611183573d6000803e3d6000fd5b50506001909201915061107f9050565b507f789cf55be980739dad1d0699b93b58e806b51c9d96619bfa8fe0a28abaa7b30c8260405161082d91906141da565b337fb8e138887d0aa13bab447e82de9d5c1777041ecd21ca36ba824ff1e6c07ddda483836111f28483836122c1565b604051611201939291906145a5565b60405180910390a25050565b60025473ffffffffffffffffffffffffffffffffffffffff1681565b69d3c21bcecceda100000081565b337fb8e138887d0aa13bab447e82de9d5c1777041ecd21ca36ba824ff1e6c07ddda485856112668483836122c1565b868660405161127995949392919061455f565b60405180910390a250505050565b600a81565b6201d88081565b60095473ffffffffffffffffffffffffffffffffffffffff1681565b60055481565b60005473ffffffffffffffffffffffffffffffffffffffff163314611306576040517f08c379a00000000000000000000000000000000000000000000000000000000081526004016107a090614245565b6001805473ffffffffffffffffffffffffffffffffffffffff8381167fffffffffffffffffffffffff00000000000000000000000000000000000000008316179092556040519116907fca4f2f25d0898edd99413412fb94012f9e54ec8142f9b093e7720646a95b16a99061082d90839085906140c9565b60085473ffffffffffffffffffffffffffffffffffffffff16156113ce576040517f08c379a00000000000000000000000000000000000000000000000000000000081526004016107a090614235565b60005473ffffffffffffffffffffffffffffffffffffffff16331461141f576040517f08c379a00000000000000000000000000000000000000000000000000000000081526004016107a090614315565b73ffffffffffffffffffffffffffffffffffffffff851661146c576040517f08c379a00000000000000000000000000000000000000000000000000000000081526004016107a090614275565b73ffffffffffffffffffffffffffffffffffffffff84166114b9576040517f08c379a00000000000000000000000000000000000000000000000000000000081526004016107a090614225565b601483101580156114cd57506201d8808311155b611503576040517f08c379a00000000000000000000000000000000000000000000000000000000081526004016107a0906143f5565b6001821015801561151757506201d8808211155b61154d576040517f08c379a00000000000000000000000000000000000000000000000000000000081526004016107a0906142f5565b69d3c21bcecceda1000000811015801561157257506a108b2a2c280290940000008111155b6115a8576040517f08c379a00000000000000000000000000000000000000000000000000000000081526004016107a0906142d5565b6008805473ffffffffffffffffffffffffffffffffffffffff9687167fffffffffffffffffffffffff0000000000000000000000000000000000000000918216179091556009805495909616941693909317909355600455600391909155600555565b60085473ffffffffffffffffffffffffffffffffffffffff1681565b60075481565b6005546009546000919073ffffffffffffffffffffffffffffffffffffffff16634ee2cd7e3361165e43600161227f565b6040518363ffffffff1660e01b815260040161167b9291906140ae565b60206040518083038186803b15801561169357600080fd5b505afa1580156116a7573d6000803e3d6000fd5b505050506040513d601f19601f820116820180604052506116cb9190810190612eb8565b11611702576040517f08c379a00000000000000000000000000000000000000000000000000000000081526004016107a0906143b5565b84518651148015611714575083518651145b8015611721575082518651145b611757576040517f08c379a00000000000000000000000000000000000000000000000000000000081526004016107a090614305565b855161178f576040517f08c379a00000000000000000000000000000000000000000000000000000000081526004016107a090614355565b600a865111156117cb576040517f08c379a00000000000000000000000000000000000000000000000000000000081526004016107a090614385565b336000908152600b6020526040902054801561187c5760006117ec82610d2b565b905060018160078111156117fc57fe5b1415611834576040517f08c379a00000000000000000000000000000000000000000000000000000000081526004016107a0906143a5565b600081600781111561184257fe5b141561187a576040517f08c379a00000000000000000000000000000000000000000000000000000000081526004016107a090614395565b505b600061188a43600354612239565b9050600061189a82600454612239565b60078054600101905590506118ad6126e3565b604051806101c0016040528060075481526020013373ffffffffffffffffffffffffffffffffffffffff168152602001600081526020018b81526020018a815260200189815260200188815260200184815260200183815260200160008152602001600081526020016000815260200160001515815260200160001515815250905080600a6000836000015181526020019081526020016000206000820151816000015560208201518160010160006101000a81548173ffffffffffffffffffffffffffffffffffffffff021916908373ffffffffffffffffffffffffffffffffffffffff1602179055506040820151816002015560608201518160030190805190602001906119be92919061276c565b50608082015180516119da9160048401916020909101906127f6565b5060a082015180516119f691600584019160209091019061283d565b5060c08201518051611a12916006840191602090910190612896565b5060e082015181600701556101008201518160080155610120820151816009015561014082015181600a015561016082015181600b015561018082015181600c0160006101000a81548160ff0219169083151502179055506101a082015181600c0160016101000a81548160ff0219169083151502179055509050508060000151600b6000836020015173ffffffffffffffffffffffffffffffffffffffff1673ffffffffffffffffffffffffffffffffffffffff168152602001908152602001600020819055507f7d84a6263ae0d98d3329bd7b46bb4e8d6f98cd35a7adb45c274c8b7fd5ebd5e08160000151338c8c8c8c89898e604051611b1d99989796959493929190614423565b60405180910390a1519998505050505050505050565b6004611b3e82610d2b565b6007811115611b4957fe5b14611b80576040517f08c379a00000000000000000000000000000000000000000000000000000000081526004016107a090614335565b6000818152600a6020908152604080832060085482517f6a42b8f80000000000000000000000000000000000000000000000000000000081529251919493611c0093429373ffffffffffffffffffffffffffffffffffffffff90931692636a42b8f892600480840193919291829003018186803b158015610e9a57600080fd5b905060005b6003830154811015611df157611de9836003018281548110611c2357fe5b60009182526020909120015460048501805473ffffffffffffffffffffffffffffffffffffffff9092169184908110611c5857fe5b9060005260206000200154856005018481548110611c7257fe5b600091825260209182902001805460408051601f60027fffffffffffffffffffffffffffffffffffffffffffffffffffffffffffffffff610100600187161502019094169390930492830185900485028101850190915281815292830182828015611d1e5780601f10611cf357610100808354040283529160200191611d1e565b820191906000526020600020905b815481529060010190602001808311611d0157829003601f168201915b5050505050866006018581548110611d3257fe5b600091825260209182902001805460408051601f60027fffffffffffffffffffffffffffffffffffffffffffffffffffffffffffffffff610100600187161502019094169390930492830185900485028101850190915281815292830182828015611dde5780601f10611db357610100808354040283529160200191611dde565b820191906000526020600020905b815481529060010190602001808311611dc157829003601f168201915b505050505086612537565b600101611c05565b50600282018190556040517f9a2e42fd6722813d69113e7d0079d3d940171428df7373df9c7f7617cfda289290611e2b9085908490614551565b60405180910390a1505050565b604051610a129061408a565b611e4c6128ef565b506000828152600a6020908152604080832073ffffffffffffffffffffffffffffffffffffffff85168452600d018252918290208251606081018452815460ff80821615158352610100909104169281019290925260010154918101919091525b92915050565b600181565b60015473ffffffffffffffffffffffffffffffffffffffff1633148015611ede57503315155b611f14576040517f08c379a00000000000000000000000000000000000000000000000000000000081526004016107a090614365565b600080546001805473ffffffffffffffffffffffffffffffffffffffff8082167fffffffffffffffffffffffff00000000000000000000000000000000000000008086168217968790559092169092556040519282169390927ff9ffabca9c8276e99321725bcb43fb076a6c66a54b7f21c4e8146d8519b417dc92611f9d9286929116906140c9565b60405180910390a16001546040517fca4f2f25d0898edd99413412fb94012f9e54ec8142f9b093e7720646a95b16a99161082d91849173ffffffffffffffffffffffffffffffffffffffff16906140c9565b60005473ffffffffffffffffffffffffffffffffffffffff1681565b60065481565b600561201c82610d2b565b600781111561202757fe5b1461205e576040517f08c379a00000000000000000000000000000000000000000000000000000000081526004016107a0906142e5565b6000818152600a60205260408120600c810180547fffffffffffffffffffffffffffffffffffffffffffffffffffffffffffff00ff16610100179055905b60038201548110156122095760085460048301805473ffffffffffffffffffffffffffffffffffffffff90921691630825f38f9190849081106120db57fe5b90600052602060002001548460030184815481106120f557fe5b60009182526020909120015460048601805473ffffffffffffffffffffffffffffffffffffffff909216918690811061212a57fe5b906000526020600020015486600501868154811061214457fe5b9060005260206000200187600601878154811061215d57fe5b9060005260206000200188600201546040518763ffffffff1660e01b815260040161218c95949392919061414c565b6000604051808303818588803b1580156121a557600080fd5b505af11580156121b9573d6000803e3d6000fd5b50505050506040513d6000823e601f3d9081017fffffffffffffffffffffffffffffffffffffffffffffffffffffffffffffffe01682016040526122009190810190612ed6565b5060010161209c565b507f712ae1383f79ac853f8d882153778e0260ef8f03b504e2866e0593e04d2b291f8260405161082d91906141da565b600082820183811015612278576040517f08c379a00000000000000000000000000000000000000000000000000000000081526004016107a090614345565b9392505050565b6000828211156122bb576040517f08c379a00000000000000000000000000000000000000000000000000000000081526004016107a090614405565b50900390565b600060016122ce84610d2b565b60078111156122d957fe5b14612310576040517f08c379a00000000000000000000000000000000000000000000000000000000081526004016107a0906142a5565b60028260ff16111561234e576040517f08c379a00000000000000000000000000000000000000000000000000000000081526004016107a090614215565b6000838152600a6020908152604080832073ffffffffffffffffffffffffffffffffffffffff88168452600d8101909252909120805460ff16156123be576040517f08c379a00000000000000000000000000000000000000000000000000000000081526004016107a0906142b5565b60095460078301546040517f4ee2cd7e00000000000000000000000000000000000000000000000000000000815260009273ffffffffffffffffffffffffffffffffffffffff1691634ee2cd7e9161241a918b916004016140e4565b60206040518083038186803b15801561243257600080fd5b505afa158015612446573d6000803e3d6000fd5b505050506040513d601f19601f8201168201806040525061246a9190810190612eb8565b905060ff851661248c5761248283600a015482612239565b600a8401556124d0565b8460ff16600114156124b0576124a6836009015482612239565b60098401556124d0565b8460ff16600214156124d0576124ca83600b015482612239565b600b8401555b815460017fffffffffffffffffffffffffffffffffffffffffffffffffffffffffffffff0090911681177fffffffffffffffffffffffffffffffffffffffffffffffffffffffffffff00ff1661010060ff8816021783559091018190559150509392505050565b60085460405173ffffffffffffffffffffffffffffffffffffffff9091169063f2b065379061257290889088908890889088906020016140f2565b604051602081830303815290604052805190602001206040518263ffffffff1660e01b81526004016125a491906141da565b60206040518083038186803b1580156125bc57600080fd5b505afa1580156125d0573d6000803e3d6000fd5b505050506040513d601f19601f820116820180604052506125f49190810190612e9a565b1561262b576040517f08c379a00000000000000000000000000000000000000000000000000000000081526004016107a090614255565b6008546040517f3a66f90100000000000000000000000000000000000000000000000000000000815273ffffffffffffffffffffffffffffffffffffffff90911690633a66f9019061268990889088908890889088906004016140f2565b602060405180830381600087803b1580156126a357600080fd5b505af11580156126b7573d6000803e3d6000fd5b505050506040513d601f19601f820116820180604052506126db9190810190612eb8565b505050505050565b604051806101c0016040528060008152602001600073ffffffffffffffffffffffffffffffffffffffff168152602001600081526020016060815260200160608152602001606081526020016060815260200160008152602001600081526020016000815260200160008152602001600081526020016000151581526020016000151581525090565b8280548282559060005260206000209081019282156127e6579160200282015b828111156127e657825182547fffffffffffffffffffffffff00000000000000000000000000000000000000001673ffffffffffffffffffffffffffffffffffffffff90911617825560209092019160019091019061278c565b506127f292915061290f565b5090565b828054828255906000526020600020908101928215612831579160200282015b82811115612831578251825591602001919060010190612816565b506127f292915061294e565b82805482825590600052602060002090810192821561288a579160200282015b8281111561288a578251805161287a918491602090910190612968565b509160200191906001019061285d565b506127f29291506129d5565b8280548282559060005260206000209081019282156128e3579160200282015b828111156128e357825180516128d3918491602090910190612968565b50916020019190600101906128b6565b506127f29291506129f8565b604080516060810182526000808252602082018190529181019190915290565b61294b91905b808211156127f25780547fffffffffffffffffffffffff0000000000000000000000000000000000000000168155600101612915565b90565b61294b91905b808211156127f25760008155600101612954565b828054600181600116156101000203166002900490600052602060002090601f016020900481019282601f106129a957805160ff1916838001178555612831565b828001600101855582156128315791820182811115612831578251825591602001919060010190612816565b61294b91905b808211156127f25760006129ef8282612a1b565b506001016129db565b61294b91905b808211156127f2576000612a128282612a1b565b506001016129fe565b50805460018160011615610100020316600290046000825580601f10612a415750612a5f565b601f016020900490600052602060002090810190612a5f919061294e565b50565b8035611ead81614754565b600082601f830112612a7e57600080fd5b8135612a91612a8c8261460e565b6145e7565b91508181835260208401935060208101905083856020840282011115612ab657600080fd5b60005b83811015612ae25781612acc8882612a62565b8452506020928301929190910190600101612ab9565b5050505092915050565b600082601f830112612afd57600080fd5b8135612b0b612a8c8261460e565b81815260209384019390925082018360005b83811015612ae25781358601612b338882612c2c565b8452506020928301929190910190600101612b1d565b600082601f830112612b5a57600080fd5b8135612b68612a8c8261460e565b81815260209384019390925082018360005b83811015612ae25781358601612b908882612c2c565b8452506020928301929190910190600101612b7a565b600082601f830112612bb757600080fd5b8135612bc5612a8c8261460e565b91508181835260208401935060208101905083856020840282011115612bea57600080fd5b60005b83811015612ae25781612c008882612d0a565b8452506020928301929190910190600101612bed565b8051611ead81614768565b8051611ead81614771565b600082601f830112612c3d57600080fd5b8135612c4b612a8c8261462f565b91508082526020830160208301858383011115612c6757600080fd5b612c728382846146ea565b50505092915050565b600082601f830112612c8c57600080fd5b8151612c9a612a8c8261462f565b91508082526020830160208301858383011115612cb657600080fd5b612c728382846146f6565b60008083601f840112612cd357600080fd5b50813567ffffffffffffffff811115612ceb57600080fd5b602083019150836001820283011115612d0357600080fd5b9250929050565b8035611ead81614771565b8035611ead8161477a565b600060208284031215612d3257600080fd5b6000612d3e8484612a62565b949350505050565b600080600080600060a08688031215612d5e57600080fd5b6000612d6a8888612a62565b9550506020612d7b88828901612a62565b9450506040612d8c88828901612d0a565b9350506060612d9d88828901612d0a565b9250506080612dae88828901612d0a565b9150509295509295909350565b600080600080600060a08688031215612dd357600080fd5b853567ffffffffffffffff811115612dea57600080fd5b612df688828901612a6d565b955050602086013567ffffffffffffffff811115612e1357600080fd5b612e1f88828901612ba6565b945050604086013567ffffffffffffffff811115612e3c57600080fd5b612e4888828901612b49565b935050606086013567ffffffffffffffff811115612e6557600080fd5b612e7188828901612aec565b925050608086013567ffffffffffffffff811115612e8e57600080fd5b612dae88828901612c2c565b600060208284031215612eac57600080fd5b6000612d3e8484612c16565b600060208284031215612eca57600080fd5b6000612d3e8484612c21565b600060208284031215612ee857600080fd5b815167ffffffffffffffff811115612eff57600080fd5b612d3e84828501612c7b565b600060208284031215612f1d57600080fd5b6000612d3e8484612d0a565b60008060408385031215612f3c57600080fd5b6000612f488585612d0a565b9250506020612f5985828601612a62565b9150509250929050565b60008060408385031215612f7657600080fd5b6000612f828585612d0a565b9250506020612f5985828601612d15565b60008060008060608587031215612fa957600080fd5b6000612fb58787612d0a565b9450506020612fc687828801612d15565b935050604085013567ffffffffffffffff811115612fe357600080fd5b612fef87828801612cc1565b95989497509550505050565b60006130078383613036565b505060200190565b600061227883836131c7565b600061300783836131be565b613030816146cd565b82525050565b61303081614694565b600061304a82614687565b613054818561468b565b935061305f83614675565b8060005b8381101561308d5781516130778882612ffb565b975061308283614675565b925050600101613063565b509495945050505050565b60006130a382614687565b6130ad818561468b565b9350836020820285016130bf85614675565b8060005b858110156130f957848403895281516130dc858261300f565b94506130e783614675565b60209a909a01999250506001016130c3565b5091979650505050505050565b600061311182614687565b61311b818561468b565b93508360208202850161312d85614675565b8060005b858110156130f9578484038952815161314a858261300f565b945061315583614675565b60209a909a0199925050600101613131565b600061317282614687565b61317c818561468b565b935061318783614675565b8060005b8381101561308d57815161319f888261301b565b97506131aa83614675565b92505060010161318b565b6130308161469f565b6130308161294b565b60006131d282614687565b6131dc818561468b565b93506131ec8185602086016146f6565b6131f581614722565b9093019392505050565b60008154600181166000811461321c57600181146132605761329f565b607f600283041661322d818761468b565b7fffffffffffffffffffffffffffffffffffffffffffffffffffffffffffffff008416815295505060208501925061329f565b6002820461326e818761468b565b95506132798561467b565b60005b828110156132985781548882015260019091019060200161327c565b8701945050505b505092915050565b613030816146d4565b613030816146df565b60006132c5838561468b565b93506132d28385846146ea565b6131f583614722565b60006132e860328361468b565b7f476f7665726e6f72427261766f3a3a63617374566f7465496e7465726e616c3a81527f20696e76616c696420766f746520747970650000000000000000000000000000602082015260400192915050565b600061334760318361468b565b7f476f7665726e6f72427261766f3a3a696e697469616c697a653a20696e76616c81527f69642076656d6f62692061646472657373000000000000000000000000000000602082015260400192915050565b60006133a6602883610eed565b7f42616c6c6f742875696e743235362070726f706f73616c49642c75696e74382081527f737570706f727429000000000000000000000000000000000000000000000000602082015260280192915050565b600061340560338361468b565b7f476f7665726e6f72427261766f3a3a696e697469616c697a653a2063616e206f81527f6e6c7920696e697469616c697a65206f6e636500000000000000000000000000602082015260400192915050565b6000613464602a8361468b565b7f476f7665726e6f72427261766f3a5f73657450656e64696e6741646d696e3a2081527f61646d696e206f6e6c7900000000000000000000000000000000000000000000602082015260400192915050565b60006134c360558361468b565b7f476f7665726e6f72427261766f3a3a71756575654f72526576657274496e746581527f726e616c3a206964656e746963616c2070726f706f73616c20616374696f6e2060208201527f616c726561647920717565756564206174206574610000000000000000000000604082015260600192915050565b6000613548602b8361468b565b7f476f7665726e6f72427261766f3a3a5f736574566f74696e67506572696f643a81527f2061646d696e206f6e6c79000000000000000000000000000000000000000000602082015260400192915050565b60006135a760338361468b565b7f476f7665726e6f72427261766f3a3a696e697469616c697a653a20696e76616c81527f69642074696d656c6f636b206164647265737300000000000000000000000000602082015260400192915050565b6000613606602a8361468b565b7f476f7665726e6f72427261766f3a3a5f736574566f74696e6744656c61793a2081527f61646d696e206f6e6c7900000000000000000000000000000000000000000000602082015260400192915050565b600061366560368361468b565b7f476f7665726e6f72427261766f3a3a5f736574566f74696e67506572696f643a81527f20696e76616c696420766f74696e6720706572696f6400000000000000000000602082015260400192915050565b60006136c460318361468b565b7f476f7665726e6f72427261766f3a3a63617374566f7465496e7465726e616c3a81527f20766f74696e6720697320636c6f736564000000000000000000000000000000602082015260400192915050565b600061372360348361468b565b7f476f7665726e6f72427261766f3a3a63617374566f7465496e7465726e616c3a81527f20766f74657220616c726561647920766f746564000000000000000000000000602082015260400192915050565b600061378260348361468b565b7f476f7665726e6f72427261766f3a3a5f736574566f74696e6744656c61793a2081527f696e76616c696420766f74696e672064656c6179000000000000000000000000602082015260400192915050565b60006137e160358361468b565b7f476f7665726e6f72427261766f3a3a696e697469616c697a653a20696e76616c81527f69642070726f706f73616c207468726573686f6c640000000000000000000000602082015260400192915050565b600061384060458361468b565b7f476f7665726e6f72427261766f3a3a657865637574653a2070726f706f73616c81527f2063616e206f6e6c79206265206578656375746564206966206974206973207160208201527f7565756564000000000000000000000000000000000000000000000000000000604082015260600192915050565b60006138c5602f8361468b565b7f476f7665726e6f72427261766f3a3a696e697469616c697a653a20696e76616c81527f696420766f74696e672064656c61790000000000000000000000000000000000602082015260400192915050565b600061392460448361468b565b7f476f7665726e6f72427261766f3a3a70726f706f73653a2070726f706f73616c81527f2066756e6374696f6e20696e666f726d6174696f6e206172697479206d69736d60208201527f6174636800000000000000000000000000000000000000000000000000000000604082015260600192915050565b60006139a960258361468b565b7f476f7665726e6f72427261766f3a3a696e697469616c697a653a2061646d696e81527f206f6e6c79000000000000000000000000000000000000000000000000000000602082015260400192915050565b6000613a0860408361468b565b7f476f7665726e6f72427261766f3a3a5f73657450726f706f73616c546872657381527f686f6c643a20696e76616c69642070726f706f73616c207468726573686f6c64602082015260400192915050565b6000613a6760448361468b565b7f476f7665726e6f72427261766f3a3a71756575653a2070726f706f73616c206381527f616e206f6e6c792062652071756575656420696620697420697320737563636560208201527f6564656400000000000000000000000000000000000000000000000000000000604082015260600192915050565b6000613aec60118361468b565b7f6164646974696f6e206f766572666c6f77000000000000000000000000000000815260200192915050565b6000613b25604383610eed565b7f454950373132446f6d61696e28737472696e67206e616d652c75696e7432353681527f20636861696e49642c6164647265737320766572696679696e67436f6e74726160208201527f6374290000000000000000000000000000000000000000000000000000000000604082015260430192915050565b6000613baa602c8361468b565b7f476f7665726e6f72427261766f3a3a70726f706f73653a206d7573742070726f81527f7669646520616374696f6e730000000000000000000000000000000000000000602082015260400192915050565b6000613c09602e8361468b565b7f476f7665726e6f72427261766f3a5f61636365707441646d696e3a2070656e6481527f696e672061646d696e206f6e6c79000000000000000000000000000000000000602082015260400192915050565b6000613c68602f8361468b565b7f476f7665726e6f72427261766f3a3a63616e63656c3a2070726f706f7365722081527f61626f7665207468726573686f6c640000000000000000000000000000000000602082015260400192915050565b6000613cc760288361468b565b7f476f7665726e6f72427261766f3a3a70726f706f73653a20746f6f206d616e7981527f20616374696f6e73000000000000000000000000000000000000000000000000602082015260400192915050565b6000613d2660598361468b565b7f476f7665726e6f72427261766f3a3a70726f706f73653a206f6e65206c69766581527f2070726f706f73616c207065722070726f706f7365722c20666f756e6420616e60208201527f20616c72656164792070656e64696e672070726f706f73616c00000000000000604082015260600192915050565b6000613dab60588361468b565b7f476f7665726e6f72427261766f3a3a70726f706f73653a206f6e65206c69766581527f2070726f706f73616c207065722070726f706f7365722c20666f756e6420616e60208201527f20616c7265616479206163746976652070726f706f73616c0000000000000000604082015260600192915050565b6000611ead60008361468b565b6000613e3d603f8361468b565b7f476f7665726e6f72427261766f3a3a70726f706f73653a2070726f706f73657281527f20766f7465732062656c6f772070726f706f73616c207468726573686f6c6400602082015260400192915050565b6000613e9c60368361468b565b7f476f7665726e6f72427261766f3a3a63616e63656c3a2063616e6e6f7420636181527f6e63656c2065786563757465642070726f706f73616c00000000000000000000602082015260400192915050565b6000613efb60308361468b565b7f476f7665726e6f72427261766f3a3a5f73657450726f706f73616c546872657381527f686f6c643a2061646d696e206f6e6c7900000000000000000000000000000000602082015260400192915050565b6000613f5a60298361468b565b7f476f7665726e6f72427261766f3a3a73746174653a20696e76616c696420707281527f6f706f73616c2069640000000000000000000000000000000000000000000000602082015260400192915050565b6000613fb960308361468b565b7f476f7665726e6f72427261766f3a3a696e697469616c697a653a20696e76616c81527f696420766f74696e6720706572696f6400000000000000000000000000000000602082015260400192915050565b600061401860158361468b565b7f7375627472616374696f6e20756e646572666c6f770000000000000000000000815260200192915050565b8051606083019061405584826131b5565b5060208201516140686020850182614081565b50604082015161407b60408501826131be565b50505050565b613030816146c7565b6000611ead82613399565b6000611ead82613b18565b60208101611ead8284613036565b604081016140bc8285613027565b61227860208301846131be565b604081016140d78285613036565b6122786020830184613036565b604081016140bc8285613036565b60a081016141008288613036565b61410d60208301876131be565b818103604083015261411f81866131c7565b9050818103606083015261413381856131c7565b905061414260808301846131be565b9695505050505050565b60a0810161415a8288613036565b61416760208301876131be565b818103604083015261417981866131ff565b9050818103606083015261413381856131ff565b6080808252810161419e818761303f565b905081810360208301526141b28186613167565b905081810360408301526141c68185613106565b905081810360608301526141428184613098565b60208101611ead82846131be565b60208101611ead82846132a7565b60208101611ead82846132b0565b6020808252810161227881846131c7565b60208082528101611ead816132db565b60208082528101611ead8161333a565b60208082528101611ead816133f8565b60208082528101611ead81613457565b60208082528101611ead816134b6565b60208082528101611ead8161353b565b60208082528101611ead8161359a565b60208082528101611ead816135f9565b60208082528101611ead81613658565b60208082528101611ead816136b7565b60208082528101611ead81613716565b60208082528101611ead81613775565b60208082528101611ead816137d4565b60208082528101611ead81613833565b60208082528101611ead816138b8565b60208082528101611ead81613917565b60208082528101611ead8161399c565b60208082528101611ead816139fb565b60208082528101611ead81613a5a565b60208082528101611ead81613adf565b60208082528101611ead81613b9d565b60208082528101611ead81613bfc565b60208082528101611ead81613c5b565b60208082528101611ead81613cba565b60208082528101611ead81613d19565b60208082528101611ead81613d9e565b60208082528101611ead81613e30565b60208082528101611ead81613e8f565b60208082528101611ead81613eee565b60208082528101611ead81613f4d565b60208082528101611ead81613fac565b60208082528101611ead8161400b565b60608101611ead8284614044565b6101208101614432828c6131be565b61443f602083018b613027565b8181036040830152614451818a61303f565b905081810360608301526144658189613167565b905081810360808301526144798188613106565b905081810360a083015261448d8187613098565b905061449c60c08301866131be565b6144a960e08301856131be565b8181036101008301526144bc81846131c7565b9b9a5050505050505050505050565b61014081016144da828d6131be565b6144e7602083018c613036565b6144f4604083018b6131be565b614501606083018a6131be565b61450e60808301896131be565b61451b60a08301886131be565b61452860c08301876131be565b61453560e08301866131be565b6145436101008301856131b5565b6144bc6101208301846131b5565b604081016140bc82856131be565b6080810161456d82886131be565b61457a6020830187614081565b61458760408301866131be565b818103606083015261459a8184866132b9565b979650505050505050565b608081016145b382866131be565b6145c06020830185614081565b6145cd60408301846131be565b81810360608301526145de81613e23565b95945050505050565b60405181810167ffffffffffffffff8111828210171561460657600080fd5b604052919050565b600067ffffffffffffffff82111561462557600080fd5b5060209081020190565b600067ffffffffffffffff82111561464657600080fd5b506020601f919091017fffffffffffffffffffffffffffffffffffffffffffffffffffffffffffffffe0160190565b60200190565b60009081526020902090565b5190565b90815260200190565b6000611ead826146ae565b151590565b80610eed8161474a565b73ffffffffffffffffffffffffffffffffffffffff1690565b60ff1690565b6000611ead825b6000611ead82614694565b6000611ead826146a4565b82818337506000910152565b60005b838110156147115781810151838201526020016146f9565b8381111561407b5750506000910152565b601f017fffffffffffffffffffffffffffffffffffffffffffffffffffffffffffffffe01690565b60088110612a5f57fe5b61475d81614694565b8114612a5f57600080fd5b61475d8161469f565b61475d8161294b565b61475d816146c756fea365627a7a72315820e8bf72a7a7b82924d14d26d01e66934e7d5c8e07001b40f569df94b4f7927a176c6578706572696d656e74616cf564736f6c63430005100040",
  "devdoc": {
    "methods": {
      "_acceptAdmin()": {
        "details": "Admin function for pending admin to accept role and update admin"
      },
      "_setPendingAdmin(address)": {
        "details": "Admin function to begin change of admin. The newPendingAdmin must call `_acceptAdmin` to finalize the transfer.",
        "params": {
          "newPendingAdmin": "New pending admin."
        }
      },
      "_setProposalThreshold(uint256)": {
        "details": "newProposalThreshold must be greater than the hardcoded min",
        "params": {
          "newProposalThreshold": "new proposal threshold"
        }
      },
      "_setVotingDelay(uint256)": {
        "params": {
          "newVotingDelay": "new voting delay, in blocks"
        }
      },
      "_setVotingPeriod(uint256)": {
        "params": {
          "newVotingPeriod": "new voting period, in blocks"
        }
      },
      "cancel(uint256)": {
        "params": {
          "proposalId": "The id of the proposal to cancel"
        }
      },
      "castVote(uint256,uint8)": {
        "params": {
          "proposalId": "The id of the proposal to vote on",
          "support": "The support value for the vote. 0=against, 1=for, 2=abstain"
        }
      },
      "castVoteWithReason(uint256,uint8,string)": {
        "params": {
          "proposalId": "The id of the proposal to vote on",
          "reason": "The reason given for the vote by the voter",
          "support": "The support value for the vote. 0=against, 1=for, 2=abstain"
        }
      },
      "execute(uint256)": {
        "params": {
          "proposalId": "The id of the proposal to execute"
        }
      },
      "getActions(uint256)": {
        "params": {
          "proposalId": "the id of the proposal"
        },
        "return": "Targets, values, signatures, and calldatas of the proposal actions"
      },
      "getReceipt(uint256,address)": {
        "params": {
          "proposalId": "the id of proposal",
          "voter": "The address of the voter"
        },
        "return": "The voting receipt"
      },
      "initialize(address,address,uint256,uint256,uint256)": {
        "params": {
          "proposalThreshold_": "The initial proposal threshold",
          "timelock_": "The address of the Timelock",
          "vemobi_": "The address of the veMOBI token",
          "votingDelay_": "The initial voting delay",
          "votingPeriod_": "The initial voting period"
        }
      },
      "propose(address[],uint256[],string[],bytes[],string)": {
        "params": {
          "calldatas": "Calldatas for proposal calls",
          "description": "String description of the proposal",
          "signatures": "Function signatures for proposal calls",
          "targets": "Target addresses for proposal calls",
          "values": "Eth values for proposal calls"
        },
        "return": "Proposal id of new proposal"
      },
      "queue(uint256)": {
        "params": {
          "proposalId": "The id of the proposal to queue"
        }
      },
      "state(uint256)": {
        "params": {
          "proposalId": "The id of the proposal"
        },
        "return": "Proposal state"
      }
    }
  },
  "userdoc": {
    "methods": {
      "_acceptAdmin()": {
        "notice": "Accepts transfer of admin rights. msg.sender must be pendingAdmin"
      },
      "_setPendingAdmin(address)": {
        "notice": "Begins transfer of admin rights. The newPendingAdmin must call `_acceptAdmin` to finalize the transfer."
      },
      "_setProposalThreshold(uint256)": {
        "notice": "Admin function for setting the proposal threshold"
      },
      "_setVotingDelay(uint256)": {
        "notice": "Admin function for setting the voting delay"
      },
      "_setVotingPeriod(uint256)": {
        "notice": "Admin function for setting the voting period"
      },
      "cancel(uint256)": {
        "notice": "Cancels a proposal only if sender is the proposer, or proposer delegates dropped below proposal threshold"
      },
      "castVote(uint256,uint8)": {
        "notice": "Cast a vote for a proposal"
      },
      "castVoteWithReason(uint256,uint8,string)": {
        "notice": "Cast a vote for a proposal with a reason"
      },
      "execute(uint256)": {
        "notice": "Executes a queued proposal if eta has passed"
      },
      "getActions(uint256)": {
        "notice": "Gets actions of a proposal"
      },
      "getReceipt(uint256,address)": {
        "notice": "Gets the receipt for a voter on a given proposal"
      },
      "initialize(address,address,uint256,uint256,uint256)": {
        "notice": "Used to initialize the contract during delegator contructor"
      },
      "propose(address[],uint256[],string[],bytes[],string)": {
        "notice": "Function used to propose a new proposal. Sender must have delegates above the proposal threshold"
      },
      "queue(uint256)": {
        "notice": "Queues a proposal of state succeeded"
      },
      "state(uint256)": {
        "notice": "Gets the state of a proposal"
      }
    }
  },
  "storageLayout": {
    "storage": [
      {
        "astId": 1409,
        "contract": "contracts/Governance/GovernorBravoDelegateG1.sol:GovernorBravoDelegate",
        "label": "admin",
        "offset": 0,
        "slot": "0",
        "type": "t_address"
      },
      {
        "astId": 1411,
        "contract": "contracts/Governance/GovernorBravoDelegateG1.sol:GovernorBravoDelegate",
        "label": "pendingAdmin",
        "offset": 0,
        "slot": "1",
        "type": "t_address"
      },
      {
        "astId": 1413,
        "contract": "contracts/Governance/GovernorBravoDelegateG1.sol:GovernorBravoDelegate",
        "label": "implementation",
        "offset": 0,
        "slot": "2",
        "type": "t_address"
      },
      {
        "astId": 1418,
        "contract": "contracts/Governance/GovernorBravoDelegateG1.sol:GovernorBravoDelegate",
        "label": "votingDelay",
        "offset": 0,
        "slot": "3",
        "type": "t_uint256"
      },
      {
        "astId": 1420,
        "contract": "contracts/Governance/GovernorBravoDelegateG1.sol:GovernorBravoDelegate",
        "label": "votingPeriod",
        "offset": 0,
        "slot": "4",
        "type": "t_uint256"
      },
      {
        "astId": 1422,
        "contract": "contracts/Governance/GovernorBravoDelegateG1.sol:GovernorBravoDelegate",
        "label": "proposalThreshold",
        "offset": 0,
        "slot": "5",
        "type": "t_uint256"
      },
      {
        "astId": 1424,
        "contract": "contracts/Governance/GovernorBravoDelegateG1.sol:GovernorBravoDelegate",
        "label": "initialProposalId",
        "offset": 0,
        "slot": "6",
        "type": "t_uint256"
      },
      {
        "astId": 1426,
        "contract": "contracts/Governance/GovernorBravoDelegateG1.sol:GovernorBravoDelegate",
        "label": "proposalCount",
        "offset": 0,
        "slot": "7",
        "type": "t_uint256"
      },
      {
        "astId": 1428,
        "contract": "contracts/Governance/GovernorBravoDelegateG1.sol:GovernorBravoDelegate",
        "label": "timelock",
        "offset": 0,
        "slot": "8",
        "type": "t_contract(TimelockInterface)1565"
      },
      {
        "astId": 1430,
        "contract": "contracts/Governance/GovernorBravoDelegateG1.sol:GovernorBravoDelegate",
        "label": "vemobi",
        "offset": 0,
        "slot": "9",
        "type": "t_contract(veMOBIInterface)1575"
      },
      {
        "astId": 1434,
        "contract": "contracts/Governance/GovernorBravoDelegateG1.sol:GovernorBravoDelegate",
        "label": "proposals",
        "offset": 0,
        "slot": "10",
        "type": "t_mapping(t_uint256,t_struct(Proposal)1475_storage)"
      },
      {
        "astId": 1438,
        "contract": "contracts/Governance/GovernorBravoDelegateG1.sol:GovernorBravoDelegate",
        "label": "latestProposalIds",
        "offset": 0,
        "slot": "11",
        "type": "t_mapping(t_address,t_uint256)"
      }
    ],
    "types": {
      "t_address": {
        "encoding": "inplace",
        "label": "address",
        "numberOfBytes": "20"
      },
      "t_array(t_address)dyn_storage": {
        "base": "t_address",
        "encoding": "dynamic_array",
        "label": "address[]",
        "numberOfBytes": "32"
      },
      "t_array(t_bytes_storage)dyn_storage": {
        "base": "t_bytes_storage",
        "encoding": "dynamic_array",
        "label": "bytes[]",
        "numberOfBytes": "32"
      },
      "t_array(t_string_storage)dyn_storage": {
        "base": "t_string_storage",
        "encoding": "dynamic_array",
        "label": "string[]",
        "numberOfBytes": "32"
      },
      "t_array(t_uint256)dyn_storage": {
        "base": "t_uint256",
        "encoding": "dynamic_array",
        "label": "uint256[]",
        "numberOfBytes": "32"
      },
      "t_bool": {
        "encoding": "inplace",
        "label": "bool",
        "numberOfBytes": "1"
      },
      "t_bytes_storage": {
        "encoding": "bytes",
        "label": "bytes",
        "numberOfBytes": "32"
      },
      "t_contract(TimelockInterface)1565": {
        "encoding": "inplace",
        "label": "contract TimelockInterface",
        "numberOfBytes": "20"
      },
      "t_contract(veMOBIInterface)1575": {
        "encoding": "inplace",
        "label": "contract veMOBIInterface",
        "numberOfBytes": "20"
      },
      "t_mapping(t_address,t_struct(Receipt)1482_storage)": {
        "encoding": "mapping",
        "key": "t_address",
        "label": "mapping(address => struct GovernorBravoDelegateStorageV1.Receipt)",
        "numberOfBytes": "32",
        "value": "t_struct(Receipt)1482_storage"
      },
      "t_mapping(t_address,t_uint256)": {
        "encoding": "mapping",
        "key": "t_address",
        "label": "mapping(address => uint256)",
        "numberOfBytes": "32",
        "value": "t_uint256"
      },
      "t_mapping(t_uint256,t_struct(Proposal)1475_storage)": {
        "encoding": "mapping",
        "key": "t_uint256",
        "label": "mapping(uint256 => struct GovernorBravoDelegateStorageV1.Proposal)",
        "numberOfBytes": "32",
        "value": "t_struct(Proposal)1475_storage"
      },
      "t_string_storage": {
        "encoding": "bytes",
        "label": "string",
        "numberOfBytes": "32"
      },
      "t_struct(Proposal)1475_storage": {
        "encoding": "inplace",
        "label": "struct GovernorBravoDelegateStorageV1.Proposal",
        "members": [
          {
            "astId": 1440,
            "contract": "contracts/Governance/GovernorBravoDelegateG1.sol:GovernorBravoDelegate",
            "label": "id",
            "offset": 0,
            "slot": "0",
            "type": "t_uint256"
          },
          {
            "astId": 1442,
            "contract": "contracts/Governance/GovernorBravoDelegateG1.sol:GovernorBravoDelegate",
            "label": "proposer",
            "offset": 0,
            "slot": "1",
            "type": "t_address"
          },
          {
            "astId": 1444,
            "contract": "contracts/Governance/GovernorBravoDelegateG1.sol:GovernorBravoDelegate",
            "label": "eta",
            "offset": 0,
            "slot": "2",
            "type": "t_uint256"
          },
          {
            "astId": 1447,
            "contract": "contracts/Governance/GovernorBravoDelegateG1.sol:GovernorBravoDelegate",
            "label": "targets",
            "offset": 0,
            "slot": "3",
            "type": "t_array(t_address)dyn_storage"
          },
          {
            "astId": 1450,
            "contract": "contracts/Governance/GovernorBravoDelegateG1.sol:GovernorBravoDelegate",
            "label": "values",
            "offset": 0,
            "slot": "4",
            "type": "t_array(t_uint256)dyn_storage"
          },
          {
            "astId": 1453,
            "contract": "contracts/Governance/GovernorBravoDelegateG1.sol:GovernorBravoDelegate",
            "label": "signatures",
            "offset": 0,
            "slot": "5",
            "type": "t_array(t_string_storage)dyn_storage"
          },
          {
            "astId": 1456,
            "contract": "contracts/Governance/GovernorBravoDelegateG1.sol:GovernorBravoDelegate",
            "label": "calldatas",
            "offset": 0,
            "slot": "6",
            "type": "t_array(t_bytes_storage)dyn_storage"
          },
          {
            "astId": 1458,
            "contract": "contracts/Governance/GovernorBravoDelegateG1.sol:GovernorBravoDelegate",
            "label": "startBlock",
            "offset": 0,
            "slot": "7",
            "type": "t_uint256"
          },
          {
            "astId": 1460,
            "contract": "contracts/Governance/GovernorBravoDelegateG1.sol:GovernorBravoDelegate",
            "label": "endBlock",
            "offset": 0,
            "slot": "8",
            "type": "t_uint256"
          },
          {
            "astId": 1462,
            "contract": "contracts/Governance/GovernorBravoDelegateG1.sol:GovernorBravoDelegate",
            "label": "forVotes",
            "offset": 0,
            "slot": "9",
            "type": "t_uint256"
          },
          {
            "astId": 1464,
            "contract": "contracts/Governance/GovernorBravoDelegateG1.sol:GovernorBravoDelegate",
            "label": "againstVotes",
            "offset": 0,
            "slot": "10",
            "type": "t_uint256"
          },
          {
            "astId": 1466,
            "contract": "contracts/Governance/GovernorBravoDelegateG1.sol:GovernorBravoDelegate",
            "label": "abstainVotes",
            "offset": 0,
            "slot": "11",
            "type": "t_uint256"
          },
          {
            "astId": 1468,
            "contract": "contracts/Governance/GovernorBravoDelegateG1.sol:GovernorBravoDelegate",
            "label": "canceled",
            "offset": 0,
            "slot": "12",
            "type": "t_bool"
          },
          {
            "astId": 1470,
            "contract": "contracts/Governance/GovernorBravoDelegateG1.sol:GovernorBravoDelegate",
            "label": "executed",
            "offset": 1,
            "slot": "12",
            "type": "t_bool"
          },
          {
            "astId": 1474,
            "contract": "contracts/Governance/GovernorBravoDelegateG1.sol:GovernorBravoDelegate",
            "label": "receipts",
            "offset": 0,
            "slot": "13",
            "type": "t_mapping(t_address,t_struct(Receipt)1482_storage)"
          }
        ],
        "numberOfBytes": "448"
      },
      "t_struct(Receipt)1482_storage": {
        "encoding": "inplace",
        "label": "struct GovernorBravoDelegateStorageV1.Receipt",
        "members": [
          {
            "astId": 1477,
            "contract": "contracts/Governance/GovernorBravoDelegateG1.sol:GovernorBravoDelegate",
            "label": "hasVoted",
            "offset": 0,
            "slot": "0",
            "type": "t_bool"
          },
          {
            "astId": 1479,
            "contract": "contracts/Governance/GovernorBravoDelegateG1.sol:GovernorBravoDelegate",
            "label": "support",
            "offset": 1,
            "slot": "0",
            "type": "t_uint8"
          },
          {
            "astId": 1481,
            "contract": "contracts/Governance/GovernorBravoDelegateG1.sol:GovernorBravoDelegate",
            "label": "votes",
            "offset": 0,
            "slot": "1",
            "type": "t_uint256"
          }
        ],
        "numberOfBytes": "64"
      },
      "t_uint256": {
        "encoding": "inplace",
        "label": "uint256",
        "numberOfBytes": "32"
      },
      "t_uint8": {
        "encoding": "inplace",
        "label": "uint8",
        "numberOfBytes": "1"
      }
    }
  }
}